:020000040800F2
:10100000B013002075110008FD170008F51700083F
:10101000F91700087D170008D1180008000000002B
:10102000000000000000000000000000011800089F
:101030008117000800000000FF17000803180008CF
:101040008F1100088F1100088F1100088F11000800
:101050008F1100088F1100088F1100088F110008F0
:101060008F1100088F1100088F1100088F110008E0
:101070008F1100088F1100088F11000871180008E7
:101080008F1100088F1100088F1100088F110008C0
:101090008F1100088F1100088F1100088F110008B0
:1010A0008F1100088F1100088F1100088F110008A0
:1010B0008F110008951800088F1100088F11000883
:1010C0008F1100088F1100088F1100088F11000880
:1010D00000F002F800F03EF80AA090E8000C82440C
:1010E0008344AAF10107DA4501D100F033F8AFF2E9
:1010F000090EBAE80F0013F0010F18BFFB1A43F0F6
:1011000001031847D4460000F4460000103A24BFFB
:1011100078C878C1FAD8520724BF30C830C144BF5C
:1011200004680C607047000000230024002500269E
:10113000103A28BF78C1FBD8520728BF30C148BF3A
:101140000B6070471FB59DE8030000F0D1F91FBD8B
:1011500010B510BD00F090FA1146FFF7F3FF02F052
:101160005DF900F0AEFA03B4FFF7F2FF03BC00F044
:10117000DFFA00000948804709480047FEE7FEE71C
:10118000FEE7FEE7FEE7FEE7FEE7FEE7FEE7FEE737
:1011900004480549054A064B704700000518000839
:1011A000D1100008B00D0020B0130020B00F0020B7
:1011B000B00F002070B5064600F07EF9056806F114
:1011C0000B0020F00704B4429CBF002070BD2B46EA
:1011D0006A68BAB11068A04210D304F108018842CD
:1011E0003CBF5068586007D35168101941601168BE
:1011F000091B016058601460101D70BD13465268D1
:10120000002AE7D12146284600F05EF90028DED109
:1012100070BD53EA020C00F069802DE9F04B4FF0ED
:101220000006002B1FBFB3FA83F503FA05F424FA76
:1012300005F65E4012BF1643B2FA82F502FA05F4D3
:10124000C5F120051EBF22FA05FC44EA0C04203536
:1012500056EA044C4FEA144418BF641C4FF00008CF
:101260004FF00009904271EB030C39D3002919BFEC
:10127000B1FA81F701FA07F6B0FA80F700FA07F63B
:10128000C7F120071EBF20FA07FC46EA0C062037EC
:10129000B6FBF4FCA7EB0507103F07F01F0BCBF1E3
:1012A00020060CFA0BFB2CFA06F644BFB3460026C8
:1012B000202FA4BF5E464FF0000B5BEA060C08BF70
:1012C0004FF0010B19EB0B09ABFB027C48EB060856
:1012D000C01B06FB02CC0BFB03CC71EB0C01C1E77E
:1012E0000B46024641464846BDE8F08B13B54FF029
:1012F00000004FF00001AFF30080BDE81C407047D4
:1013000040EA010370B59B072ED14FF00136042A45
:101310002AD308C810C99D1B9D43121F15EAC61584
:1013200017D0D8B2E1B2401A50EA056110D198B294
:10133000A1B2401A50EA05410AD123F07F4024F0BF
:101340007F41401A50EA052102D1180EA0EB14602B
:1013500070BDA342DBD018BA21BA884201D901205E
:1013600070BD4FF0FF3070BD0AB9002070BD10F89D
:10137000013B11F8014B63B1A3420AD1521E08D0C0
:1013800010F8013B11F8014B1BB1A34201D1521ED1
:10139000EDD1181B70BD032A40F2308010F0030C11
:1013A00000F0158011F8013BBCF1020F624498BFB8
:1013B00011F801CB00F8013B38BF11F8013BA2F155
:1013C000040298BF00F801CB38BF00F8013B11F0D0
:1013D000030300F0F580083AC0F0088051F8043BA0
:1013E000083A51F804CBA0E80810F5E7121D5CBFDD
:1013F00051F8043B40F8043BAFF30080D20724BF10
:1014000011F8013B11F801CB48BF11F8012B24BFA3
:1014100000F8013B00F801CB48BF00F8012B7047F2
:101420004FF000020429C0F0128010F0030C00F00D
:101430001B80CCF1040CBCF1020F18BF00F8012B8B
:10144000A8BF20F8022BA1EB0C0100F00DB85FEA59
:10145000C17C24BF00F8012B00F8012B48BF00F825
:10146000012B70474FF0000200B513469446964694
:10147000203922BFA0E80C50A0E80C50B1F12001A7
:10148000BFF4F7AF090728BFA0E80C5048BF0CC055
:101490005DF804EB890028BF40F8042B08BF7047B3
:1014A00048BF20F8022B11F0804F18BF00F8012B25
:1014B000704770477047704700487047580D0020CC
:1014C000704770477047704738B504460A46002099
:1014D0006946AFF30080002808BF38BD0246009976
:1014E000204600F0A7F8012038BD012000F0BCB86C
:1014F000F8B5AFF30080054600200C46102000BF71
:101500000646A819A0420DD9324669460020AFF31D
:101510000080070008BF00F0A7F80098A04218BF9D
:101520000546C419FFF7C8FF05600746F01D20F007
:1015300007004619284600F00AF8B44208BFF8BD73
:10154000A21B31463868BDE8F84000F073B80021AE
:101550000160C0E9011070471020704770B5044663
:10156000051FFFF7A9FF0068002C14BF446870BD79
:10157000002C18BFAC423CBF20466468F8D3016819
:101580000A18AA4218BF456003D12A6805461144CB
:10159000016028684119A1421CBF6C6070BD616880
:1015A000696021680844286070BD10B500F03EF8FD
:1015B000006810BD10B5044600F038F8046010BD96
:1015C00010B5203AC0F00B80B1E81850203AA0E8DE
:1015D0001850B1E81850A0E81850BFF4F5AF5FEA12
:1015E000027C24BFB1E81850A0E8185044BF18C9C5
:1015F00018C0BDE810405FEA827C24BF51F8043B6C
:1016000040F8043B08BF7047D20728BF31F8023BBF
:1016100048BF11F8012B28BF20F8023B48BF00F853
:10162000012B704700487047500D0020004870475C
:10163000500D0020034640688C46002818BF8842A1
:101640003CBF03464068F8D318681844884207D066
:101650000CF1030020F00700001D411A521A014648
:10166000081D0A60FFF77ABF10B500F039F8BDE831
:10167000104000F02FB870477546FFF7D3FFAE4615
:1016800005006946534620F00700854618B020B58E
:10169000FFF77EFDBDE820404FF000064FF0000749
:1016A0004FF000084FF0000B21F00701AC46ACE80A
:1016B000C009ACE8C009ACE8C009ACE8C0098D4677
:1016C000704710B50446AFF300802046BDE81040D7
:1016D000FFF749BD002801D000F02AB8704700008C
:1016E00010B5012805D0002103A000F027F8012043
:1016F00010BD09A1F8E7000053494752544D454D2C
:101700003A204F7574206F662068656170206D65A2
:101710006D6F7279000000003A2048656170206D9D
:10172000656D6F727920636F727275707465640095
:1017300001491820ABBEFEE72600020070B5054641
:101740000C460A2000E06D1C00F011F835B1287835
:101750000028F8D102E0641C00F009F814B12078E8
:101760000028F8D1BDE870400A20AFF3008008B52A
:1017700069468DF800000320ABBE08BD00BFFEE740
:101780007047000031E032280ADD194A126832231E
:101790005A434FF0E0235A61A0F1320290B206E0C2
:1017A000134A126842434FF0E0235A61002000229E
:1017B0004FF0E0239A611A46126942F001021A6161
:1017C00000BF4FF0E022116901F001021AB101F4EB
:1017D0008032002AF5D04FF0E022126922F0010297
:1017E0004FF0E0231A6100229A610028CBD17047A4
:1017F0000800002000BFFEE700BFFEE7704770470B
:10180000704770471748006820F00100401C1549D8
:10181000086000BF13480068C0F340000028F9D0FA
:101820001048406820F003000E49486000BF0D4892
:101830004068C0F381000028F9D10A4800680A49CD
:101840000840084908600020486041F61070C862EE
:101850004FF4801008634FF41F008860C8030349E9
:101860000860704700100240FFFFF2FE08ED00E044
:1018700010B50121880702F05AFB40B104480088E6
:10188000401C034908800121880702F04DFB10BD70
:101890003600002008B520210B4802F090FD88B1E9
:1018A000094802F007FDC0B200900848006820B166
:1018B00001216846054A126890472021024802F03B
:1018C00007FD00BF08BD0000004800400C000020DC
:1018D00000BFFEE70B78426863F3082242604B7852
:1018E000826863F3410282608B78826863F3CB2263
:1018F0008260CA78521EC36A62F31753C36270478C
:1019000000210170417081700121C17070478168B0
:1019100021F0080108318160704701468868C0F3F2
:10192000C00008B1012070470020FCE7816821F069
:101930000401091D8160704701468868C0F380007A
:1019400008B1012070470020FCE7826861F308229B
:1019500082607047826861F300028260704770B5F0
:1019600004460A290CDA206901EB41060725B54037
:10197000A84301EB410503FA05F5284320610FE078
:10198000E068A1F10A0505EB45060725B540A84327
:10199000A1F10A0505EB450503FA05F52843E060CA
:1019A0000D2A10DBE06AA2F10D0505EB85061F2567
:1019B000B540A843A2F10D0505EB850501FA05F533
:1019C0002843E0621EE0072A0EDB206BD51F05EBE3
:1019D00085061F25B540A843D51F05EB850501FAEF
:1019E00005F5284320630DE0606B551E05EB850669
:1019F0001F25B540A843551E05EB850501FA05F5E1
:101A00002843606370BD07290ADD836823F00073F3
:101A100003F100738360836861F35343836007E0DD
:101A2000836823F000738360836861F353438360AA
:101A3000836862F3145383607047826861F396523F
:101A40008260704710B504462068A0F10050B0F5E0
:101A5000A04F44D800F014FA0021214800F0D0FF34
:101A600000211F48401C00F0CBFF00211C48801CB7
:101A700000F0C6FF00214FF0141000F0C1FF00215C
:101A80001748401D00F0BCFF00214FF4A01000F0EB
:101A9000B7FF0021134800F0B3FF00211148801C5C
:101AA00000F0AEFF0021104800F0AAFF1D2001F059
:101AB000CDFC1D20002807DB00F01F020121914012
:101AC0000A4A430942F8231000BF094960680860C8
:101AD000206880F3088800BF08460068804710BD72
:101AE000110014000900180012001C0080E200E040
:101AF000300000202DE9FF5F4FF0000907240AE0C5
:101B0000904931F8140003F0FDF80546494602F00B
:101B1000C9FF814608344F2CF2D98B49484603F05F
:101B20002FF88A4908604FF00009072426E085490C
:101B300031F8140003F0E6F80546844801682846A9
:101B400003F026FA82465146504603F023F98346B5
:101B500002F07CFFCDE9000102F04CF80746884610
:101B6000484602F073FF3A464346CDE9020102F0CF
:101B7000BBFC054602F086FC814608344F2CD6D9C2
:101B80007149484602F0FCFF714908604FF08B41F3
:101B90006E48006802F0F4FF04466E4903F0FAF85C
:101BA0006D49086068496A48006803F0BFF80AD2C6
:101BB0004FF078516848006803F0B8F804D200206C
:101BC000664981F82B00BAE04FF07851624800680E
:101BD00003F0ACF90AD862495F48006803F0A6F840
:101BE00004D201205D4981F82B00A8E05C495A48E5
:101BF000006803F09BF90AD85A495748006803F077
:101C000095F804D20220554981F82B0097E05549F8
:101C10005148006803F08AF90AD853494E480068D1
:101C200003F084F804D203204C4981F82B0086E0AD
:101C30004D494948006803F079F90AD84B494648AC
:101C4000006803F073F804D20420444981F82B00A3
:101C500075E046494048006803F068F90AD84449ED
:101C60003D48006803F062F804D205203B4981F842
:101C70002B0064E03E493848006803F057F90AD861
:101C80003C493548006803F051F804D20620334936
:101C900081F82B0053E037492F48006803F046F9DC
:101CA0000AD835492C48006803F040F804D20720D0
:101CB0002A4981F82B0042E02F492748006803F0A9
:101CC00035F90AD82D492448006803F02FF804D2CA
:101CD0000820224981F82B0031E028491E4800687D
:101CE00003F024F90AD826491B48006803F01EF8BF
:101CF00004D20920194981F82B0020E02049164818
:101D0000006803F013F90AD81E491348006803F06D
:101D10000DF804D20A20114981F82B000FE019496F
:101D20000D48006803F002F909D817490A4800680D
:101D300002F0FCFF03D20B20084981F82B00BDE81C
:101D4000FF9F000090000020000020414000002084
:101D50003C0000203333534044000020380400206E
:101D6000295CCF3E7B142E3F8FC2753FCDCC9C3F6C
:101D700052B8BE3F85EBE13F1F85034066661640C3
:101D8000295C27407B1436406666464010B501F05A
:101D900057FF01F02FF800F0B9F900F08BF800F0D0
:101DA00077F900F003F800F089F910BD1CB50121A6
:101DB000234800F025FE01212148401C00F020FEB0
:101DC00001211F48801C00F01BFE01214FF0141060
:101DD00000F016FE01211A48401D00F011FE684671
:101DE00001F0FCF901208DF8070000208DF80400B7
:101DF0008DF8060001208DF8050049F6016000907D
:101E000069464FF0904001F0F3F94FF6FD700090F5
:101E100069460C4801F0ECF943F6CF700090694632
:101E2000094801F0E5F9042000906946074801F0EF
:101E3000DFF9C02000906946054801F0D9F91CBDC2
:101E4000110014000004004800080048000C00487D
:101E50000014004810B500240CE0204601F038FDC5
:101E600018B901200549085502E00020034908552A
:101E7000601CC4B2242CF0DB10BD00006C000020FC
:101E800010B500210948FFF7D8FD00210748FFF7EA
:101E90005CFD00210548FFF75DFD0021044800F0CE
:101EA000C5FF034801F0A4F810BD00000024014064
:101EB0000800024000B589B001214FF4A01000F0E5
:101EC0009FFD0121644800F09BFD01216248401CF8
:101ED00000F096FD0121614800F092FD022000F023
:101EE0002BFC07A801F07AF903208DF82200FE20D0
:101EF000079007A94FF0904001F07AF9022007906F
:101F000007A9574801F074F9564801F071F8052205
:101F100001215448083800F0F1FF02A800F0CEFF7C
:101F20005020ADF812000020ADF810004E4803908C
:101F300001208DF817008DF815004C480290012003
:101F40008DF8160000208DF8140002208DF819007D
:101F500001208DF8180002A9424801F01BF8012168
:101F6000404800F063FF01A8FFF7CAFC01208DF88C
:101F700004008DF8050000208DF8060008208DF87B
:101F8000070001A939484C38FFF7A4FC07230122B8
:101F9000114636484C38FFF7E2FC0723022211466F
:101FA00032484C38FFF7DBFC0723032211462F4849
:101FB0004C38FFF7D4FC0723042211462B484C3839
:101FC000FFF7CDFC07230522114628484C38FFF7C0
:101FD000C6FC07230622114624484C38FFF7BFFCF5
:101FE00007231A46194621484C38FFF7B8FC072347
:101FF000082209211D484C38FFF7B1FC01220721B6
:102000001A484C38FFF7FFFC012118484C38FFF7FD
:102010009CFC012115484C38FFF79CFC13484C38B8
:10202000FFF775FC00BF11484C38FFF776FC00281D
:10203000F9D10E484C38FFF779FC00BF0B484C38FB
:10204000FFF77AFC0028F9D1012108484C38FFF746
:10205000F4FC09B000BD00001100140009001800D4
:102060000004004808000240900000204C24014079
:1020700010B5044A0449054800F09CF800F0DCFE65
:1020800010BD0000260400201704002008040020D2
:1020900010B500F0D1FE01F0C5FE10BD10B50F283F
:1020A00005DA034C2154034C2254034C235410BD35
:1020B00008040020170400202604002010B5012188
:1020C0004FF4E01000F09CFC472240F2E7314FF063
:1020D000804001F00CFF00214FF0804001F00FFF25
:1020E00001221146900701F02BFF0121880701F022
:1020F0001BFF0121880701F007FF032001F020FAF0
:10210000002201210F2001F0B7F910BD10B501F038
:10211000ABFB01F090F901F0A9F801F0E7FA10BD6E
:1021200001490860704700000C00002030B585B000
:1021300004460D461D4800F05BFF684600F0BEFEF9
:10214000A8B2ADF80A001020ADF8080001940020F4
:102150008DF80F0001208DF80D001548009000202B
:102160008DF80E008DF80C0001208DF81100002074
:102170008DF8100069460D4800F00CFF372203214E
:102180000A48303800F0BAFE0121084800F04EFE3F
:1021900000BF4FF4007000F0A3FE0028F9D04FF408
:1021A000007000F097FE05B030BD00003000024026
:1021B000044800402DE9F04707468846914600252F
:1021C000002400264FF436712548FFF729F900BF97
:1021D0003BE0C5F10E06002434E018F8050080212C
:1021E0002141084008B1442100E01E2106EB4600D1
:1021F000C000C01C20441A4A22F81010795D8020CB
:102200002041014009B1442100E01E2106EB4600B7
:10221000C000C01C20440830114A22F8101019F8E0
:10222000051080202041014009B1442100E01E2119
:1022300006EB4600C000C01C20441030084A22F8BB
:102240001010641C082CC8D36D1C0F2DC1D30020A6
:102250000349088048808880A1F8D602BDE8F0874D
:102260003001002070B504460E460B221CA120460A
:10227000FFF746F850B904F10B000A221BA1FFF743
:102280003FF800282BD100F079FF28E00B221AA19B
:102290002046FFF735F810BB04F10B000A2213A10A
:1022A000FFF72EF8D8B9152561191648096881611C
:1022B000281D21181348098881818069083811492F
:1022C000486002201049087001200E4988740020DF
:1022D0000E4908800B49088A00F082FC00BF70BDDF
:1022E0006765745F76657273696F6E006130312D5A
:1022F00066626F617264000073746172745F7772FA
:1023000069746500140000203800002036000020A9
:102310002DE9F04105460E46287802281FD1721E8D
:10232000E91C1048FFF737F80027002412E0DFF817
:1023300034C00CF1230C1CF80430ACF10F0C1CF869
:102340000420ACF10F0C1CF80410F8B2FFF7A6FE45
:102350007F1C641C0F2CEAD3FFF78AFE00BFBDE888
:10236000F08100006404002070B504460D46084862
:102370002188C181AA1EA11C0648FFF70CF8044859
:102380008168A81E0844024988600220887470BDD4
:10239000140000203C090020BA48407818B1012000
:1023A000B949087002E00020B7490870B5480079C3
:1023B00018B10120B449487002E00020B2494870C9
:1023C000B048C07918B10120AF49887002E0002000
:1023D000AD498870AB48807A18B10120AA49C8700D
:1023E00002E00020A849C870A648407B18B101202F
:1023F000A549087102E00020A3490871A148007CAA
:1024000018B10120A049487102E000209E4948719E
:102410009C48C07C18B101209B49887102E00020D3
:10242000994988719748807D18B101209649C871F3
:1024300002E000209449C8719248407E18B1012002
:102440009149087202E000208F4908728D48007F90
:1024500018B101208C49487202E000208A49487274
:102460008848C07F18B101208749887202E00020A7
:1024700085498872834890F8220018B1012082496A
:10248000C87202E000208049C8727E48007818B106
:1024900001207D49087302E000207B4908737948D8
:1024A000C07818B101217848417302E000217648D4
:1024B00041737448807918B101217348817302E037
:1024C0000021714881736F48407A18B101216E482C
:1024D000C17302E000216C48C1736A48007B18B1E7
:1024E00001216948017402E00021674801746548D0
:1024F000C07B18B101216448417402E000216248A8
:1025000041746048807C18B101215F48817402E009
:1025100000215D4881745B48407D18B101215A4813
:10252000C17402E000215848C1745648007E18B1B9
:1025300001215548017502E00021534801755148B9
:10254000C07E18B101215048417502E000214E487B
:1025500041754C48807F18B101214B48817502E0DC
:10256000002149488175474890F8210018B10121A0
:102570004548C17502E000214348C1754148807853
:1025800018B101204049087602E000203E49087653
:102590003C48407918B101213B48417602E00021D6
:1025A000394841763748007A18B10121364881769A
:1025B00002E00021344881763248C07A18B1012106
:1025C0003148C17602E000212F48C1762D48807B3A
:1025D00018B101212C48017702E000212A48017737
:1025E0002848407C18B101212748417702E00021AA
:1025F000254841772348007D18B101212248817781
:1026000002E00021204881771E48C07D18B10121D9
:102610001D48C17702E000211B48C1771948807E20
:1026200020B10121184880F8201003E0002116484D
:1026300080F820101348407F20B10121124880F813
:10264000211003E00021104880F821100D4890F877
:10265000200020B101210C4880F8221003E0002165
:10266000094880F82210074890F8230020B1012182
:10267000054880F8231003E00021034880F8231068
:10268000704700006C0000203804002030B502467E
:10269000002000230BE012F8015B85EA2024E4B25D
:1026A000044D35F8144084EA0024A0B25B1C8B4230
:1026B000F1DB30BDC05000083CB502464FF0FF30A2
:1026C000002324E0146800949DF8004084EA10641C
:1026D000104D55F8244084EA00209DF8014084EA1A
:1026E000106455F8244084EA00209DF8024084EAF2
:1026F000106455F8244084EA00209DF8034084EAE1
:10270000106455F8244084EA00201B1D121D8B42E2
:10271000D8D33CBDC053000830B50246002000238A
:1027200005E012F8014B4440024D285D5B1C8B42D2
:10273000F7DB30BDC05200080649496860F38F31AD
:10274000044A516082080349496862F31C71014AD6
:1027500051607047001002400349496860F3071157
:10276000014A516070470000001002400349496867
:1027700060F30A21014A51607047000000100240D6
:102780000349496860F3CD21014A51607047000058
:1027900000100240052827D2DFE800F0030A1118D4
:1027A0001F00134A126861F30002114B1A601CE00B
:1027B0000F4A126861F310420D4B1A6015E00C4A83
:1027C000126861F318620A4B1A600EE0084A126A36
:1027D00061F30002064B1A6207E0054A526A61F390
:1027E0000002034B5A6200E000BF00BF70470000C8
:1027F000001002402DE9F04F85B004460025AA469E
:10280000AB460026A9460020049003900290019058
:1028100000F0DEF90090009820B1012812D00228C3
:1028200075D112E05648406DC0F3402038B154488D
:10283000006BC0F3406010B15248206001E0524884
:10284000206067E05048206064E04D484068C0F375
:10285000004B4B48C06AC00F30BB49484068C0F3CA
:10286000834547484068C0F3417ABAF1000F01D16F
:102870000F2D04D14FEA0A10401C054400E0AD1CA6
:10288000BBF1000F03D14148684320603DE03C4864
:102890004068C0F3404018B13C486843206034E0D1
:1028A00039486843206030E03548C06AC0F30310FF
:1028B00003903348C06AC0F3082002903048C06AD1
:1028C00000F007000190BBF1000F02D12F480490E7
:1028D00009E02B484068C0F3404010B12B480490F9
:1028E00001E0294804900121019801FA00F00399C0
:1028F00000FB01FC02990498A0FB017001466246AE
:1029000000233846FEF785FC206003E0FFE71E4801
:10291000206000BF00BF1A484068C0F303161C487F
:1029200010F80690206820FA09F0606014484068AA
:10293000C0F30226174810F80690606820FA09F0E4
:10294000E0600F484068C0F3C226134810F80690B4
:10295000606820FA09F0A06009484068C0F300767A
:1029600007484068C0F3813040EA86060B4810F8FB
:102970000690A068B0FBF9F0206105B0BDE8F08FCB
:1029800000100240006CDC0200127A0000093D00D9
:102990008A5000089A500008A2500008AA50000867
:1029A00010B501460020094B03EB1142126801F0FB
:1029B0001F040123A3401A4001F01F040123A34078
:1029C0009A4200D000E0012010BD0000001002403B
:1029D00030B50024002500E0641C1120FFF7E0FF63
:1029E000012802D0B4F5405FF6D31120FFF7D8FFDD
:1029F000012801D0002500E00125284630BD000057
:102A000010B501290DD10E4B03EB1042126800F0F6
:102A10001F040123A3401A43094C04EB10431A601E
:102A20000CE0074B03EB1042126800F01F04012377
:102A3000A3409A43024C04EB10431A6010BD0000FF
:102A40000010024030B502460020002372B9354C18
:102A5000646824F48034334D6C6033482C46246B16
:102A600024F0007404F100742C6319E02D4C6468A8
:102A700024F4803404F580342A4D6C60012A06D198
:102A80002A482C46646824F400346C6008E0264828
:102A9000244C646824F4003404F50034214D6C6047
:102AA000234CA04204D9234CA04201D2002326E0AB
:102AB000214CA04204D9214CA04201D201231EE0A6
:102AC0001F4CA04204D91F4CA04201D2022316E0A1
:102AD0001C4CA04204D91C4CA04201D203230EE09E
:102AE0001A4CA04204D91A4CA04201D2042306E099
:102AF000174CA04203D9174CA04200D20523094C21
:102B0000646861F39544074D6C600D09054C646879
:102B100065F35E74034D6C602C46E46A63F31A64DB
:102B2000EC6230BD0010024000093D0000127A0046
:102B300060823B00404B4C0080584F00105E5F00AD
:102B400094357700101B7F0020BCBE00286BEE0080
:102B500030D73D01D8E9DC011648006820F00100BB
:102B6000401C1449086000BF12480068C0F34000D0
:102B70000028F9D00F48406820F003000D49486054
:102B800000BF0C484068C0F381000028F9D1094813
:102B9000006809490840074908600020486041F67C
:102BA0001070C8624FF4801008634FF41F008860F3
:102BB0007047000000100240FFFFF2FE0349496821
:102BC00060F30101014A51607047000000100240AB
:102BD00002484068C0F381007047000000100240C6
:102BE00011B591B00EA30FCB05AC0FC4BDF84400D6
:102BF000ADF820001E2009A90E2205ABCDE9003258
:102C0000CDE9021004230AA24C21542000F0F5FD66
:102C100084B2214609A8FFF789FA12B010BD00005E
:102C2000726571756573745F7061636B303000003D
:102C30004F636D64000000002DE9FC5F04460D4603
:102C40001646984601200190206843287ED006DC75
:102C5000302809D031280ED038286ED126E04C28F3
:102C600015D05628F9D146E0705D2179884201D10E
:102C700031202060B8E0705D6179884204D14C2039
:102C800020600020207201E030202060ACE0207A3B
:102C900020B9705DE0710120207206E0207A0128E1
:102CA00003D1705DA071382020609DE020798DF8FF
:102CB000000060798DF80100E0798DF80200A079BC
:102CC0008DF8030004216846FFF726FD6072607AE4
:102CD000715D88420CD156202060E079A17900EB2B
:102CE0000120A081A089C01FE0810021616101E075
:102CF0003020206078E0E1896069A1EB000AA8EB50
:102D0000050BDA4501D2504600E058460746D4F894
:102D100014907119226902EB09003A46FEF73BFB59
:102D20006069C1196161E1896069884206D1432007
:102D300020600020207207E008E054E0E18960692B
:102D4000884201D93020206001974DE0207A20B9D7
:102D5000705D60810120207244E0207A012841D119
:102D60006089715D40EA01206081E1892069FFF797
:102D70008DFC81466089484531D100272BE007EB67
:102D8000470C236A03EB8C035A6807EB470C236A52
:102D900053F82C002169FEF7B3FAD8B907EB4701C5
:102DA000206A00EB81004068216900EB010A07EB13
:102DB0004701206A00EB810041686069A0EB010BCC
:102DC00007EB4701206A00EB8100594682685046B4
:102DD000904703E07F1CE069B842D0D800BF3020A4
:102DE000206000BF00E000BF00BF01982844BDE89C
:102DF000FC9F000010B5042001F000F807480068AF
:102E00000749B0FBF1F007490860084600684FF435
:102E10007A7148430449086010BD0000000000209A
:102E200040420F000400002008000020026861F307
:102E3000000202607047000000B585B01C4800F039
:102E4000D7F84FF4B670ADF80A001020ADF80800BE
:102E50001848019001208DF80F008DF80D001648DC
:102E6000009001208DF80E0000208DF80C0002204B
:102E70008DF8110000208DF8100069460C4800F014
:102E800089F801210A48FFF7D1FF192202210848D9
:102E90001C3800F033F801210748343801F034F9C8
:102EA00001210548343801F02FF805B000BD0000BD
:102EB0001C00024030010020342C01400021016040
:102EC000416001814181017341738173C173017458
:102ED000417470470149486070470000000002409B
:102EE000014600200022044B1A6802EA01030BB1DC
:102EF000012000E00020704700000240D0F8A4301C
:102F0000C3F300633BB9D0F8A43023F0807303F11E
:102F10008073C0F8A430012906D1D0F8A03062F344
:102F20000703C0F8A03034E0022906D1D0F8A03061
:102F300062F30F23C0F8A0302BE0032906D1D0F8AC
:102F4000A03062F31743C0F8A03022E0042906D174
:102F5000D0F8A03062F31F63C0F8A03019E0052953
:102F600006D1D0F8A43062F30703C0F8A43010E013
:102F7000062906D1D0F8A43062F30F23C0F8A4309C
:102F800007E0072905D1D0F8A43062F31743C0F851
:102F9000A430704702684BF6EF731A400260026873
:102FA0000B891A4302604B7C026863F30D320260A6
:102FB000CB7B026863F38B2202608B7B026863F336
:102FC000092202604B7B026863F3C71202600B7B2D
:102FD000026863F3861202600B7C026863F3451299
:102FE00002604A8942600A6882604A68C26070472B
:102FF0000021026822F001020260002202604260A9
:103000008260C2600146CAB2083A1423B2FBF3F2EE
:1030100093000F229A40034B5B681A43014B5A609E
:1030200070470000000002402DE9F04107460D46C0
:1030300000F08CF8384600F069F800240CE0295DB7
:10304000601C285C01EB002086B23146384600F057
:103050000BF8BF1CA01C84B2B4F5806FEFDB00F04E
:103060001FF8BDE8F081000070B504460D46032648
:103070000A48006920F00100401C084908612580C9
:103080004FF4801000F030F806460448006920F044
:10309000010002490861304670BD00000020024076
:1030A0000348006920F080008030014908617047C2
:1030B0000020024003200B49C96801F0010109B159
:1030C00000200EE00749C968C1F3800109B1012061
:1030D00007E00449C968C1F3001109B1022000E00A
:1030E000032070470020024000B502460323FFF78B
:1030F000E1FF034603E0FFF7DDFF0346521E0BB975
:10310000002AF8D102B90423184600BD30B50446A0
:1031100003250D48006920F00200801C0A4908615F
:1031200008464461006920F04000403008614804CE
:10313000FFF7DAFF05460448006920F00200024963
:103140000861284630BD00000020024002480349C3
:1031500048600348486070472301674500200240EB
:10316000AB89EFCD70B504460D46034901EB8420D1
:103170002946FFF759FF70BD0084000810B590B0D4
:10318000124AD2E900109268CDE906020591104872
:1031900000788DF81E000E48008800128DF81F0080
:1031A0001E2008A90C2205ABCDE90032CDE90210A2
:1031B000042308A24C21542000F01FFB84B22146B6
:1031C00008A8FEF7B3FF10B010BD0000B45000080F
:1031D000140000204F636D64000000004FF6FF7183
:1031E000016000218171017141710121C17170473C
:1031F00070B50A4600211488A3B233E003F001043D
:103200006CB304684E000325B540AC430460947968
:103210004D00AC4005682C430460446801258D4096
:10322000AC434460446815798D402C434460846805
:103230004E000325B540AC438460D4794D00AC40CA
:1032400085682C438460C4684E000325B540AC43B8
:10325000C46054794D00AC40C5682C43C4605B1019
:103260004C1CA1B2002BC9DC70BD00001CB5684627
:10327000FFF7B4FF01208DF8070000208DF804004F
:1032800002208DF806003020009000208DF8050007
:1032900069460748FFF7ACFF01220421044800F00B
:1032A00012F801220521024800F00DF81CBD0000B3
:1032B000000800480246002013690B408B4200D0F2
:1032C00000E001207047F0B5002300244D07ED0E0B
:1032D00002FA05F3CD105DB1456A4E07F70E0F26D1
:1032E000BE40B5434562456A45EA030444620AE0CC
:1032F000056A4E07F70E0F26BE40B5430562056A04
:1033000045EA03040462F0BD0EB52C210A48FEF71D
:10331000A9F800F069F80948FEF702FF4FF4906041
:1033200007490322074BCDE9002102904C2254218A
:10333000054800F0FFF90EBD38040020894200085E
:10334000BC040020480000209804002010B520484C
:10335000007801280FD1FEF77DFDFFF71DF8FEF77D
:10336000C9FB1C4800F0D6FE1A4800F091FA0A206A
:10337000FEF708FA2AE018480088B0F5FA6F1BDD5E
:103380001648807C012817D1002013490880144872
:1033900000F0AAFD1148808A032809DA0F49088A3B
:1033A000FFF71EFC0D48808A401C0C4988820AE009
:1033B00005200A49887406E00848807C022802D16A
:1033C000002006498882074800F0D8F810BD0000A8
:1033D00038000020380400203600002014000020AF
:1033E000980400203C09002070B5002510E000245E
:1033F00006E0E0B200231A46FF21FEF74FFE641CF0
:103400000F2CF6D3FEF734FE1420FEF7BBF96D1C2B
:103410001E2DECD3C820FEF7B5F970BD4FF48051D6
:10342000C80300F0A1F8FEF7B1FCFFF76DFF01E063
:10343000FFF78CFFFCE710B5072000F081F80022B1
:1034400011461D2000F018F810BD000010B501460F
:10345000084600280BDB00F01F0301229A40054BB1
:10346000440943F82420BFF34F8FBFF36F8F00BF91
:1034700010BD000080E100E02DE9F0470B46144646
:103480004FF0000C00BF2C4A1268C2F302211D4607
:1034900026460A46C2F10709B9F1040F02D94FF0D6
:1034A000040901E0C2F10709C84602F10409B9F1B3
:1034B000070F02D24FF0000901E0A2F103094F46C5
:1034C0004FF0010909FA08F9A9F1010909EA05090A
:1034D00009FA07F94FF0010A0AFA07FAAAF1010AF4
:1034E0000AEA060A49EA0A09CC4601466246002968
:1034F00004DB15072E0E114D6E5407E015072F0E35
:103500000D4D0C3501F00F06361FAF5500BF0146BB
:1035100000290DDB00BF00BF01F01F050122AA40FA
:103520004D09AD0005F1E025C5F8002100BF00BF41
:1035300000BFBDE8F08700000CED00E000E400E013
:1035400000BF00F00702064B19684FF6FF03194051
:10355000044B0B4343EA0221014B196000BF704743
:103560000CED00E00000FA05024A0A400243024B5B
:103570001A60704780FFFF1F08ED00E02DE9F0475B
:1035800007465448807C022845D1524880695149F9
:103590008968884203D205204E4988743BE04D4833
:1035A000C0894C49098A884216D000204A490880BF
:1035B00001204849887449480078032808DA088AB5
:1035C000FFF70EFB45480078401C4449087022E094
:1035D0000520404988741EE03E49C8893946FFF7F6
:1035E000C1FD3C488089401E3A49C989884203D1BF
:1035F0000320384988740EE0002037490880374995
:1036000008700120334988740846C089401C08822C
:10361000088AFFF7E5FA2F48807C032844D12D481B
:1036200041682F48FFF748F880462A4840682D49EE
:103630000844D0F80094C84502D005202549887474
:103640002448406826490844446822484068A0420B
:1036500002D005201F4988741E484068204908444C
:1036600005891C480088A84202D1052019498874A0
:10367000184840681A490844C6680846864202D07D
:10368000052014498874C8450DD112484068A042ED
:1036900009D110480088A84205D01148864202D1BD
:1036A00004200C49887400BF0A48807C042804D197
:1036B000FFF752FA0A48FEF7C5F90648807C05284C
:1036C00005D1012008490870002002498874BDE82E
:1036D000F087000014000020360000203400002095
:1036E00000840008008000083800002010B5002386
:1036F00001220D490D4800F0F5FD01210B4800F0B5
:10370000BBFE0121094800F0B2FE0122084907482A
:1037100000F03AFE0121054800F0D0FD01210348E8
:1037200000F0D1FD10BD000080841E000048004064
:1037300005000C002DE9F04704460E4617461D46CD
:10374000DDE9099ADDF8208030202060267167715C
:103750000020A071E07160726081A081E081C4F8F6
:10376000109000216161C4F818A0C4F81C8008EB17
:1037700048018800FDF71EFD2062206A18B94FF04D
:10378000FF30BDE8F08700201FE000EB400155F856
:10379000211000EB4003226A42F8231000EB4001A5
:1037A00005EB8101496800EB4003226A02EB8302CA
:1037B000516000EB400105EB8101896800EB40039B
:1037C000226A02EB83029160401CE1698142DCD8ED
:1037D0000020D6E72DE9F04107460D4614460026A5
:1037E00000BF23462A4631463846FFF725FA0646EB
:1037F000A642F6D30020BDE8F0812DE9FC5F8046AB
:10380000894692461E46DDE90D74002584F8008045
:1038100084F80190701D3844801C80B20190BDF87E
:103820000400608004212046FEF776FF834684F87A
:1038300004B00525601932465146FDF7ACFD35440C
:1038400060193A460C99FDF7A6FD3D44F01981B286
:10385000601DFEF71BFF00906019BDF8001001808D
:10386000AD1C2846BDE8FC9F10B501214FF4A01007
:10387000FFF7C6F801210448FFF7C2F80121034809
:10388000FFF7BEF810BD00001300140012001C006A
:1038900030B502460023002015E0002109E000EBCE
:1038A000C1040A4D35F8144003EB2414A3B24C1C98
:1038B000A1B20A29F3DBC0F1060502F124014B5540
:1038C0000023411C88B20728E7DB30BD90000020B0
:1038D00010B50446242C72D2DFE804F0121B262F08
:1038E00038434C55606A747F89939CA6B0B9C3CDA8
:1038F000D8F1FAEEEDECEBEAE9E8E7E6E5E4E3E23D
:103900001021B848FFF7D6FC012800D110BD0020D7
:10391000FCE74FF400714FF09040FFF7CBFC01281B
:1039200000D1F3E70020F1E70121AE48FFF7C2FC28
:10393000012800D1EAE70020E8E72021A948FFF7A5
:10394000B9FC012800D1E1E70020DFE74FF48061F6
:103950004FF09040FFF7AEFC012800D1D6E70020E1
:10396000D4E704219F48FFF7A5FC012800D1CDE74B
:103970000020CBE740219B48FFF79CFC012800D1A9
:10398000C4E70020C2E74FF400614FF09040FFF71A
:1039900091FC012800D1B9E70020B7E74FF480611E
:1039A0009048FFF787FC012800D1AFE70020ADE782
:1039B00080218C48FFF77EFC012801D1A6E70CE1AD
:1039C0000020A3E74FF480514FF09040FFF772FCC6
:1039D000012800D19AE7002098E74FF40061814860
:1039E000FFF768FC012800D190E700208EE74FF434
:1039F00080717C48FFF75EFC012800D186E700203B
:103A000084E740217848FFF755FC012800D17DE785
:103A100000207BE74FF480517248FFF74BFC0128F0
:103A200000D173E7002071E74FF400716D48FFF794
:103A300041FC012800D169E7002067E780216A483E
:103A4000FFF738FC012800D160E700205EE74FF463
:103A500000516448FFF72EFC012800D156E70020F2
:103A600054E74FF400516148FFF724FC012800D1CE
:103A70004CE700204AE74FF400414FF09040FFF739
:103A800019FC012800D141E700203FE74FF48041B5
:103A90005448FFF70FFC012800D137E7002035E735
:103AA00091E087E07CE071E067E05DE053E048E0B2
:103AB0003EE034E029E01FE014E009E0FFE70121E7
:103AC0004A48FFF7F7FB012800D11FE700201DE758
:103AD0004FF480614548FFF7EDFB012800D115E761
:103AE000002013E74FF400413E48FFF7E3FB0128B5
:103AF00000D10BE7002009E702213C48FFF7DAFB81
:103B0000012800D102E7002000E74FF400613748A8
:103B1000FFF7D0FB012800D1F8E60020F6E64021AF
:103B20003248FFF7C7FB012800D1EFE60020EDE6A1
:103B300004212E48FFF7BEFB012800D1E6E6002055
:103B4000E4E64FF480512948FFF7B4FB012800D187
:103B5000DCE60020DAE680212448FFF7ABFB0128F1
:103B600000D1D3E60020D1E608212048FFF7A2FBD0
:103B7000012800D1CAE60020C8E604211C48FFF74E
:103B800099FB012800D1C1E60020BFE64FF4807107
:103B90001648FFF78FFB012800D1B7E60020B5E6F5
:103BA00001214FF09040FFF785FB012800D1ADE6E1
:103BB0000020ABE608210B48FFF77CFB012800D171
:103BC000A4E60020A2E64FF400710848FFF772FB5C
:103BD000012800D19AE6002098E600BF00BF00202F
:103BE00094E6000000040048001400480008004863
:103BF000000C00482DE9F04106460F4600F070FD2C
:103C0000041E0D4618BF0120284320F00040C0F1DB
:103C10007F6000F1E040C00F0ED0301C18BF0120C3
:103C2000384320F00040C0F17F6000F1E040C00F59
:103C300004BF0120FDF7BEFC20462946BDE8F08107
:103C400010B5FEF789FF4FF4A970164908600121ED
:103C50000846FEF79FFD00BFFEF7BAFE0028FBD026
:103C60000A210120FEF7EEFE01210220FEF792FD5F
:103C700000BF1920FEF794FE0128FAD10020FEF7BC
:103C80006BFD0020FEF77CFD0020FEF76FFD02209B
:103C9000FEF794FF00BFFEF79BFF0228FBD100F068
:103CA00003F810BD002002402DE9FF5F002400252D
:103CB0000026A146A246A346002003900290019050
:103CC000FEF786FF0090009820B1012814D002284A
:103CD00074D115E04348406DC0F3402040B14148E5
:103CE000006BC0F3406018B13F484049086002E0F3
:103CF0003F483E49086065E03D483C49086061E056
:103D000038484068C0F300463648C06AC00F20BB40
:103D100034484068C0F3834432484068C0F341757A
:103D20000DB90F2C03D12801401C044400E0A41C51
:103D300026B9304860432D4908603DE02948406875
:103D4000C0F3404020B12B4860432849086033E06D
:103D500027486043254908602EE02248C06AC0F326
:103D6000031003901F48C06AC0F3082002901D484A
:103D7000C06A00F00700019016B9DFF878B009E0DA
:103D800018484068C0F3404010B1DFF868B001E067
:103D9000DFF85CB00121019801FA00F0039900FB03
:103DA00001FC0298ABFB00700146624600233846D6
:103DB000FDF72FFA0D49086004E0FFE70C480B49B6
:103DC000086000BF00BF07484068C0F303190A48F5
:103DD00010F809A00548006820FA0AF003490860B5
:103DE000BDE8FF9F00100240006CDC0200000020D4
:103DF00000127A0000093D007A500008042808D11A
:103E00004FF0E021096941F004014FF0E022116117
:103E100007E04FF0E021096921F004014FF0E022B2
:103E2000116170471FB5002401212A48FEF7E8FD03
:103E300001214FF4A010FEF7E3FD01212648FEF713
:103E4000DFFD4FF48070029002208DF80E000020FC
:103E50008DF80C008DF80D0001208DF80F0002A9DF
:103E60004FF09040FFF7C4F9022208214FF0904034
:103E7000FFF729FA194800681949B0FBF1F0401E14
:103E800084B200222146174800F031F8002115487D
:103E900000F035F8684600F02EF907208DF8000094
:103EA00001208DF805008DF803008DF801008DF8D4
:103EB00006008DF8040000208DF802006A460021FB
:103EC000084800F048F801221102064800F021F8E5
:103ED0001FBD00000B00180011001400000000209E
:103EE00000350C00002C0140302101607047C16298
:103EF0008262436923F001035B1C436170470268DF
:103F000061F3061202607047026861F3000202600A
:103F10007047012A03D1C3680B43C36003E012B9A1
:103F2000C3688B43C3607047CA430261704702464F
:103F3000002013690B400BB1012000E00020704706
:103F4000012A03D1C3680B43C36003E012B9C368FD
:103F50008B43C36070472DE9F04100250026002700
:103F600001F108035C1C92F801C00CFA03FC1FFA73
:103F70008CF592F802C00CFA04FC1FFA8CF6D0F80B
:103F800004C04FF0010808FA04F82CEA080CC0F845
:103F900004C0D0F804C04CEA060CC0F804C0D0F845
:103FA00004C04FF0010808FA03F82CEA080CC0F826
:103FB00004C0D0F804C04CEA050CC0F804C00F4699
:103FC00037B1022F0DD0042F14D0062F24D11AE0C0
:103FD00092F80080D0F818C068F3061CC0F818C02A
:103FE0001BE092F80080D0F818C068F30E3CC0F8CF
:103FF00018C012E092F80080D0F81CC068F3061CCC
:10400000C0F81CC009E092F80080D0F81CC068F32A
:104010000E3CC0F81CC000E000BF00BF4FF0010C18
:104020000CEB41034FF0030C0CEB410492F803C07E
:104030000CFA03FC1FFA8CF592F804C00CFA04FC8D
:104040001FFA8CF64FF0010808FA04F8D0F820C0E7
:104050002CEA080CC0F820C0D0F820C04CEA060CAE
:10406000C0F820C04FF0010C0CFA03FCD0F82080FF
:1040700028EA0C08C0F82080D0F820C04CEA050CD3
:10408000C0F820C04B004FF0020C0CEB410492F83A
:1040900005C04FEA41080CFA08FC1FFA8CF592F8AB
:1040A00006C04FF0020808EB41080CFA08FC1FFAA2
:1040B0008CF64FF0010808FA04F8D0F820C02CEA7A
:1040C000080CC0F820C0D0F820C04CEA060CC0F89C
:1040D00020C04FF0010808FA03F8D0F820C02CEAFD
:1040E000080CC0F820C0D0F820C04CEA050CC0F87D
:1040F00020C0BDE8F0810021017041708170C17065
:104100000171417181717047426C61F3CF32426439
:10411000704700002DE9F043A9B005464FF4205741
:104120004FF00008002007900890059006900024AA
:1041300065E0172C21DD2046E21704EB5272D21005
:1041400007AB9A5C2146E31704EB5373DB10A4EB37
:10415000C303C3F10709A4F1180305F1180C1CF8F7
:10416000033003FA09F31A43E31704EB5373DB102C
:104170000DF11C0C0CF803203FE00B2C21DD204638
:10418000E21704EB5272D21007AB9A5C2146E31798
:1041900004EB5373DB10A4EBC303C3F10709A4F1D1
:1041A0000C0305F10C0C1CF8033003FA09F31A4355
:1041B000E31704EB5373DB100DF11C0C0CF8032018
:1041C0001BE0E21704EB5272D21007AB9A5C214657
:1041D000E31704EB5373DB10A4EBC303C3F1070C29
:1041E0002B5D03FA0CF31A432046E31704EB5373D9
:1041F000DB100DF11C0C0CF80320601CC4B2242C45
:1042000097DB9DF8200095F82B1001F00F01084373
:104210008DF82000002406E005F12400005D05A9CA
:104220000855601CC4B2072CF6DB00201349C1F806
:1042300001000120087008460599C0F80A10BDF871
:104240001810C1819DF81A1001740799C0F8051063
:104250009DF820104172802009A91122074BCDE959
:104260000032CDE90210062305A24C215420FFF7AD
:10427000C4FA86B229B0BDE8F08300003C0D0020EE
:1042800046626F617264000070B504460D462A46AE
:1042900021460548FFF79EFA04480078022802D11B
:1042A00000200349088070BD9804002038000020D9
:1042B000360000200146486880B27047426961F3C9
:1042C000C71242617047C26861F34D32C2607047E5
:1042D00001F01F0212B10268426801E0CA430260A5
:1042E000704700002DE9F04385B004468846164625
:1042F00099466846FEF77EFA2248844201D1029F21
:1043000000E0039F07EB87004000B0FBF8F50A20B0
:10431000B5FBF0F100FB1150052803D20A20B5FBD4
:10432000F0F503E00A20B5FBF0F0451CA06865F34A
:104330000F00A06056B9E06820F0805000F1805076
:10434000E060E06820F48050E06014E0012E08D1C5
:10435000E06820F08050E060E06820F48050E06089
:1043600009E0E06820F08050E060E06820F48050D0
:1043700000F58050E060206969F30D30206105B0E0
:10438000BDE8F0830038014030B5012A0BD100EBC5
:1043900011431B6801F01F050124AC40234300EBCF
:1043A000114423600AE000EB11431B6801F01F0574
:1043B0000124AC40A34300EB1144236030BD02460E
:1043C0000023202927D00CDC042939D004DC012962
:1043D0003BD002293DD134E0082920D0102938D122
:1043E0002AE0402913D080290DD0B1F5807F06D076
:1043F000B1F5007F2DD15069C0F380232BE0106907
:10440000C0F3801327E0D068C0F3C01323E0D06866
:10441000C0F380131FE0D068C0F340131BE0D068E6
:10442000C0F3401018B9506900F0010008B1012034
:1044300000E0002003460EE0D068C0F300130AE05D
:1044400000BF506900F0010305E0D068C0F300230D
:1044500001E0002300BF00BF012B01D00020704706
:104460001068084008B10120F9E70020F7E7C268AA
:1044700061F38202C2607047C26861F3C302C26026
:104480007047000021F00042A2F16052B2F5801F97
:1044900001F0004328BFD2F17F6C0BD95FEA001C0A
:1044A00043EAC20242EB507018BF704728BF20F0A9
:1044B00001007047B2F5801FBCBF184670474FEA35
:1044C000410C1CF5001F02D2084600F02ABD70B551
:1044D00000F0B2F800000089FFF7F6BF4FF000408F
:1044E000A0F580007047000010B591EA030F48BFA7
:1044F00083F0004300F1C881841A71EB030C05D2EC
:10450000121943EB0C03001B61EB0C01DFF824E1F3
:104510004FEA1154A4EB135C1EEA430F18BF9EEA46
:10452000445F73D023EA0E03DCF1200E21EA04512C
:1045300043F4801332D322FA0CFE10EB0E0023FA60
:104540000CFE41EB0E01CCF1200E03FA0EFE10EB37
:104550000E0051F10001B1F5801FCCF1200E32D2D6
:1045600001EB045112FA0EF2BDE8104058BF70473B
:10457000401C38BF5FEA420218BF7047002814BFD2
:1045800020F0010041F100014FEA410313F5001F43
:1045900038BF7047A1F1C04100F09CB8012A43EB3D
:1045A0000302ACF1200CDCF11F0E32BF4FF0000E05
:1045B00023FA0CF310EB030041EB0451B4EB115F51
:1045C000D0D0A1EB045101F5801149085FEA300019
:1045D00001EB04510ED350F1000038BF12FA0EFE69
:1045E00008D1BDE81040C9E7401C38BF5FEA42026D
:1045F000CAD1C3E7BDE810404FEA410313F5001FDD
:1046000038BF7047A1F1C04100F064B89EEA445F32
:1046100008D011EA5E0FBDE8104004BF01F0004170
:1046200000207047BDE8104070B500F005F800BFED
:1046300064FBBE3E0000E0FF0EF1020E2EF0030E02
:104640005EF8046B364205D4012A43EB030515F5E9
:10465000001F12D8012841EB010C1CF5001F0CD8DB
:104660000ED14FEAD17C15F5001F0CEB4C0C0CF170
:10467000020C08BF4CEBD37C04E04FF0080C01E0C7
:104680004FEAD37C0CEB4C0526FA05F606F007063C
:10469000B6F1040C06D20EEB860CBDE870404CF06F
:1046A000010C6047DFE80CF0090B02024FF00041FB
:1046B0004FF00000A1F5002170BD194610460128F9
:1046C00051EB010418BFD4F5001484BF002001F0A1
:1046D000004170BD0808A0F500114FEA3101704794
:1046E0002DE9F04101F5801CBCF5001FC0F2A98046
:1046F0004FEA115C21EA0C510CF1FD0C41F48011E0
:104700005FEA5C0C0CF5C07C01D34000494130A449
:10471000890241EA905187028E0E0A0CA45D04FBC7
:1047200004F602FB06F6C6F14046A4FB0662F60D4F
:1047300046EA422606FB06F4A4FB01235242C3F1DB
:10474000404338BF5B1EA6FB02420024E6FB032465
:10475000D20B42EA4446A6FB0623A1FB02E2A3FBDE
:1047600007E4E3FB61426442C2F1404E38BFAEF160
:10477000010EA6FB04234FF00002E6FB0E32A2FB63
:1047800003463400E2FB6264A1FB06E6A4FB07E8F3
:10479000E4FB61687642C8F1405838BFA8F10108CF
:1047A000A2FB06E4A3FB08E5E2FB6854A1FB05E6D7
:1047B000A7FB04E8E1FB648618F1200556F100062A
:1047C000A809A8F11B08B10908F03F08B8F10A0FC1
:1047D00040EA86601CD901EB0C51BDE8F08100BFB6
:1047E000FCF5EEE8E2DDD8D3CFCBC7C3C0BDB9B688
:1047F000B4B1AEACA9A7A5A3A19F9D9B9A9896958D
:104800009392908F8D8C8B89888786858483828113
:10481000A0FB006800FB01F208EB4208B8EB872818
:1048200007D5341858EB0104D5D5401C51F10001CF
:10483000D1E7341A78EB0104CDD4401E71F10001A8
:10484000C9E75FEA4C0C5FEA9C5C0DD105D34FF0E1
:10485000000001F00041BDE8F081BDE8F04170B515
:10486000FFF7EAFE6DDBFFBEBDE8F0414FF0000050
:10487000004970470000F87F10B591EA030F48BF68
:1048800083F000433FF538AE841A71EB030C07D276
:1048900012198CF0004C43EB0C03001B61EB0C0174
:1048A000DFF8A4E14FEA1154A4EB135C1EEA430FB6
:1048B00018BF9EEA445F00F0B08023EA6E035242C4
:1048C00021EA0451C3EB6E0338BF5B1EDCF1200EFE
:1048D00025D322FA0CFE10EB0E0043FA0CFE41EB3E
:1048E0000E01CCF1200E03FA0EFE10EB0E0051F17A
:1048F0000001CCF1200E29D412FA0EF201EB045182
:10490000BDE8104058BF7047401C1CBFB2F1004FBB
:10491000704700280CBF491C20F00100704712EBC3
:10492000020E43EB030218BF4FF0010E4EEA4202A3
:10493000ACF1200CDCF11E0E54D943FA0CFE10EB46
:104940000E0051F1FF31CCF11E0ED5D50EF1010E46
:1049500012FA0EFE404141EB010101EB445C5FEABB
:104960005C5C10D910EBDE7001EB045138BFBEF176
:10497000004FBDE8104018BF704700280CBF491C0D
:1049800020F00100704730D24FEAD42C11F500110D
:1049900024F400641BD0B1FA81F20B3AA41AA41ECD
:1049A000D2F12003914030FA03F31943904001EB18
:1049B000CC71002C01EB0451BDE81040A8BF70473A
:1049C00001F1C0414FF0000001F000417047B0FA22
:1049D00080F310FA03F100D110BDE41A173C48052A
:1049E000C90AE4E701EB045110BD491001EB045181
:1049F000BDE810404FEA300002E04FF00001704780
:104A00004A0008BF0042F8D0B2F5001F28BF704727
:104A100001F000414FF0000070479EEA445F07D06C
:104A200011EA5E0FBDE8104004BF0021002070476E
:104A3000BDE8104070B5FFF7FFFD00BF40DFF63E58
:104A400083F00041104670470000E0FF43004FEA4A
:104A5000D30C4FEA3C0C43401FBF40070CF16051A0
:104A600013F0FE4F70471CF0006F03D100200CF0D4
:104A7000004170470CF0004343EA507010B540EA23
:104A8000CC0000F008FA00BF000000924FEA0001DD
:104A9000FFF720BE4FF000414FF00000A1F50021CC
:104AA0007047000090EA010F48BF81F0004100F11B
:104AB0007682421A3CBF801A89184FEAD0524FF0D2
:104AC0007F4C1CEA410FA2EBD15318BF9CEA026F46
:104AD00000F03B804FF0004C4CEA00204CEA0121F2
:104AE00021FA03FC10EB0C0C1ED202F1FF325FEA3C
:104AF0001C2040EBC25038BF70471CF07F0F4FEABC
:104B0000400C18BFBCF17F4F38BF7047C3F1200382
:104B1000994008BF20F00100BCF17F4F38BF7047BB
:104B2000A0F1C04000F0FDB94FEA3C00000A40EBA4
:104B3000C25028BF1CF0FF0F4FEA400CE6D018BF50
:104B4000BCF17F4F38BF7047EAE79CEA026F05D09F
:104B500010EA5C0F08BF00F00040704710B500F08D
:104B60009AF900BF64FBBE3E401058BFC0F1404000
:104B7000491058BFC1F140418142EFF300807047B6
:104B80004FF47F0C1CEAD0121EBF1CEAD11392EA2C
:104B90000C0F93EA0C0F00F0858090EA010F48BFDC
:104BA00042F4807240F4000C41F400002CF07F418C
:104BB00020F07F4000B58142A2EB03020FF2081CF7
:104BC000ACEB504EC0F100009EF800E04FEA4E0EF4
:104BD00000FB0EFC38BF49004FEA2C1C02F5FA021C
:104BE0000CFB0EF34FEACE1E4FEA112C4FEAC12107
:104BF0000EEB635E42EB22420EFB0CFC4FEA1C53B1
:104C000000FB03114FEA112C4FEA01310EFB0CFCA3
:104C10004FEADC4C00FB0C11C14228BF09184CEBD9
:104C200003335DF804EB10EB410143EBC250B2F5E6
:104C30007C0F38BF704729D512F0F00F1CBF00F170
:104C4000C04000F0004070470081828384858687E1
:104C500088898B8C8D8E8F919293959697999A9C3B
:104C60009D9FA0A2A3A5A7A8AAACAEB0B2B3B5B7AA
:104C7000B9BCBEC0C2C5C7C9CCCED1D4D7D9DCDF80
:104C8000E2E6E9ECF0F3F7FAFE0000004FEA400C30
:104C90000CF1807CBCF17E4F28BF7047B0F1C04062
:104CA00000F03FB990EA010F0CEAD11348BF42F47B
:104CB0008072624538BF634507D213F47F0F16D068
:104CC00080EA010000F00040704710B500F0E3F802
:104CD000097EFC3E00F005B880EA010000F00040CB
:104CE000704780EA010000F0004000F01AB912F4A9
:104CF0007F0F04BF0248704780EA010000F011B93D
:104D00000000C07FB0FA80F310FA03F2C3F19D03F4
:104D10000AD0D90501EB1220530638BF704700F1C5
:104D2000010008BF20F001007047000050EA010CAC
:104D300000F113801CF5000F58BFBCF5000F01D423
:104D40008842704707D710F5000F58BF11F5000FC4
:104D500015D488427047894270471CF5000F04D56E
:104D6000BCF5000FF7D5814270474FF0807C1CEBFB
:104D7000400F38BF1CEB410F01D28142704710B584
:104D800000F089F8922449004FF000504FF0805114
:104D9000FFF7EABE4FF47F0C1CEAD0121EBF1CEADC
:104DA000D11392EA0C0F93EA0C0F00F0478090EABF
:104DB000010F48BF42F480724FF0004C4CEA0020D3
:104DC0004CEA012102EB0302A0FB0113A2F5000251
:104DD000002918BF43F001035B0028BF4FEA3303EB
:104DE00042EB22425FEA132C4CEBC2502EBFBCEBCD
:104DF000436FB2F57C0F70474FEA036CBCF1004F74
:104E000008BF20F00100B2F57C0F38BF70470BD50A
:104E100082F0FF0212F5803FC8BF704700F1C0402A
:104E2000D8BF00F00040704700F5000C5FEA4C0C62
:104E300048BF7047B0F1C04000F073B890EA010F6E
:104E40000CEAD11348BF42F48072624538BF634513
:104E500004D280EA010000F00040704710B500F075
:104E60001AF800BF8900013E00F007B800F009B849
:104E70005FEA410C5FEA1C6C08D080EA010000F098
:104E800050B85FEA400C5FEA1C6CF6D14FF000406E
:104E9000A0F5800070470EF1020E2EF0030E5EF8B2
:104EA000044B244204D44FEA4102B2F17F4F11D89F
:104EB0004FEA4003B3F17F4F0CD80ED14FEAD07CBC
:104EC000B2F17F4F0CEB4C0C0CF1020C08BF4CEB19
:104ED000D17C04E04FF0080C01E04FEAD17C0CEBF0
:104EE0004C0324FA03F404F00704B4F1040C06D2D2
:104EF0000EEB840CBDE810404CF0010C6047DFE87D
:104F00000CF0070802024FF00040A0F5800010BD31
:104F10000846420018BFD2F1807288BF00F00040FE
:104F200010BDFF2141EAD050C005704751EA000C86
:104F300000F113801CF5000F58BFBCF5000F01D421
:104F40008142704707D711F5000F58BF10F5000FC9
:104F500015D481427047894270471CF5000F04D573
:104F6000BCF5000FF7D5884270474FF0807C1CEBF2
:104F7000410F38BF1CEB400F01D28842704780EAD6
:104F8000010081EA000180EA0100FFF7F8BE00009D
:104F900090EA010F48BF81F000413FF58AAD421A07
:104FA00004D882F00042A0EB020011444FEAD05234
:104FB0004FF07F4C1CEA410FA2EBD15318BF9CEA83
:104FC000026F4AD04FF0004C4CEA00204CEA01211D
:104FD00021FA03FCB0EB0C0C0FD412F0FE0F36D00C
:104FE0005FEA4C001DD5001240EBC25038BF70473D
:104FF0001CF03F0F18BF70470BE0A2F101025FEAFF
:105000001C2040EBC25038BF70471CF07F0F18BF08
:105010007047C3F12003994014BF401E20F00100E7
:10502000704780084FEA122308BF7047B0FA80FC2F
:10503000A2EB0C02CCF1280C60FA0CF093EA122FD0
:1050400004BF00EBC25070474FEAC3707047130AA9
:105050005FEADC1008BF7047F6E79CEA026F04D0F5
:1050600010EA5C0F08BF0020704710B5FFF713FF70
:1050700040DFF63E81F00040704700000000000075
:1050800000000102030406070809000000000000F8
:1050900000000102030406070809000000000102E5
:1050A0000304000000000102030402040608020CCD
:1050B000081000006130312D66626F61726400007B
:1050C00000002110422063308440A550C660E77084
:1050D000088129914AA16BB18CC1ADD1CEE1EFF12C
:1050E0003112100273325222B5529442F772D662D4
:1050F000399318837BB35AA3BDD39CC3FFF3DEE37C
:105100006224433420040114E664C774A444855423
:105110006AA54BB528850995EEE5CFF5ACC58DD5CB
:105120005336722611163006D776F6669556B44673
:105130005BB77AA719973887DFF7FEE79DD7BCC71B
:10514000C448E5588668A7784008611802282338C3
:10515000CCC9EDD98EE9AFF9488969990AA92BB96B
:10516000F55AD44AB77A966A711A500A333A122A13
:10517000FDDBDCCBBFFB9EEB799B588B3BBB1AABBB
:10518000A66C877CE44CC55C222C033C600C411C63
:10519000AEED8FFDECCDCDDD2AAD0BBD688D499D0B
:1051A000977EB66ED55EF44E133E322E511E700EB3
:1051B0009FFFBEEFDDDFFCCF1BBF3AAF599F788F5B
:1051C0008891A981CAB1EBA10CD12DC14EF16FE13B
:1051D0008010A100C230E320045025404670676073
:1051E000B9839893FBA3DAB33DC31CD37FE35EF38B
:1051F000B1029012F322D2323542145277625672C3
:10520000EAB5CBA5A89589856EF54FE52CD50DC5DA
:10521000E234C324A0148104667447642454054412
:10522000DBA7FAB79987B8975FE77EF71DC73CD72A
:10523000D326F2369106B016576676761546345662
:105240004CD96DC90EF92FE9C899E9898AB9ABA97A
:105250004458654806782768C018E1088238A328B2
:105260007DCB5CDB3FEB1EFBF98BD89BBBAB9ABBCA
:10527000754A545A376A167AF10AD01AB32A923A02
:105280002EFD0FED6CDD4DCDAABD8BADE89DC98D1A
:10529000267C076C645C454CA23C832CE01CC10C52
:1052A0001FEF3EFF5DCF7CDF9BAFBABFD98FF89F6A
:1052B000176E367E554E745E932EB23ED10EF01EA2
:1052C00000316253C4F5A697B988DBEA7D4C1F2EE6
:1052D0004372211087B6E5D4FACB98A93E0F5C6DD6
:1052E00086B7E4D5427320113F0E5D6CFBCA99A8C6
:1052F000C5F4A796013063527C4D1E2FB889DAEBB6
:105300003D0C5F6EF9C89BAA84B5E6D740712213A5
:105310007E4F1C2DBA8BD8E9C7F6A5940332615095
:10532000BB8AD9E87F4E1D2C02336051C6F7A49585
:10533000F8C99AAB3C0D5E6F4170231285B4E7D675
:105340007A4B1829BE8FDCEDC3F2A1900736655465
:1053500039085B6AFDCC9FAE80B1E2D34475261755
:10536000FCCD9EAF38095A6B4574271681B0E3D245
:10537000BF8EDDEC7B4A192806376455C2F3A09135
:105380004776251483B2E1D0FECF9CAD3A0B586925
:1053900004356657C0F1A293BD8CDFEE79481B2A15
:1053A000C1F0A3920534675678491A2BBC8DDEEF05
:1053B00082B3E0D1467724153B0A5968FFCE9DACF5
:1053C00000000000B71DC1046E3B8209D926430DC1
:1053D000DC7604136B6BC517B24D861A0550471E59
:1053E000B8ED08260FF0C922D6D68A2F61CB4B2BF9
:1053F000649B0C35D386CD310AA08E3CBDBD4F38A1
:1054000070DB114CC7C6D0481EE09345A9FD524140
:10541000ACAD155F1BB0D45BC2969756758B5652D8
:10542000C836196A7F2BD86EA60D9B6311105A6778
:1054300014401D79A35DDC7D7A7B9F70CD665E7420
:10544000E0B6239857ABE29C8E8DA1913990609580
:105450003CC0278B8BDDE68F52FBA582E5E6648698
:10546000585B2BBEEF46EABA3660A9B7817D68B3B8
:10547000842D2FAD3330EEA9EA16ADA45D0B6CA0E0
:10548000906D32D42770F3D0FE56B0DD494B71D900
:105490004C1B36C7FB06F7C32220B4CE953D75CA18
:1054A00028803AF29F9DFBF646BBB8FBF1A679FF38
:1054B000F4F63EE143EBFFE59ACDBCE82DD07DEC60
:1054C00077708634C06D4730194B043DAE56C539F0
:1054D000AB0682271C1B4323C53D002E7220C12A28
:1054E000CF9D8E1278804F16A1A60C1B16BBCD1F28
:1054F00013EB8A01A4F64B057DD00808CACDC90C70
:1055000007AB9778B0B6567C69901571DE8DD4756F
:10551000DBDD936B6CC0526FB5E6116202FBD066A7
:10552000BF469F5E085B5E5AD17D1D576660DC53A7
:1055300063309B4DD42D5A490D0B1944BA16D840EF
:1055400097C6A5AC20DB64A8F9FD27A54EE0E6A12F
:105550004BB0A1BFFCAD60BB258B23B69296E2B2E7
:105560002F2BAD8A98366C8E41102F83F60DEE8767
:10557000F35DA9994440689D9D662B902A7BEA942F
:10558000E71DB4E0500075E4892636E93E3BF7EDAF
:105590003B6BB0F38C7671F7555032FAE24DF3FE67
:1055A0005FF0BCC6E8ED7DC231CB3ECF86D6FFCBE7
:1055B0008386B8D5349B79D1EDBD3ADC5AA0FBD8AF
:1055C000EEE00C6959FDCD6D80DB8E6037C64F640F
:1055D0003296087A858BC97E5CAD8A73EBB04B77C7
:1055E000560D044FE110C54B383686468F2B474287
:1055F0008A7B005C3D66C158E4408255535D43514F
:105600009E3B1D252926DC21F0009F2C471D5E288E
:10561000424D1936F550D8322C769B3F9B6B5A3B46
:1056200026D6150391CBD40748ED970AFFF0560E06
:10563000FAA011104DBDD014949B93192386521DCE
:105640000E562FF1B94BEEF5606DADF8D7706CFCCE
:10565000D2202BE2653DEAE6BC1BA9EB0B0668EF06
:10566000B6BB27D701A6E6D3D880A5DE6F9D64DA46
:105670006ACD23C4DDD0E2C004F6A1CDB3EB60C98E
:105680007E8D3EBDC990FFB910B6BCB4A7AB7DB04E
:10569000A2FB3AAE15E6FBAACCC0B8A77BDD79A386
:1056A000C660369B717DF79FA85BB4921F467596C6
:1056B0001A163288AD0BF38C742DB081C33071850E
:1056C00099908A5D2E8D4B59F7AB085440B6C9505E
:1056D00045E68E4EF2FB4F4A2BDD0C479CC0CD4376
:1056E000217D827B9660437F4F460072F85BC176D6
:1056F000FD0B86684A16476C93300461242DC565FE
:10570000E94B9B115E565A1587701918306DD81CDD
:10571000353D9F0282205E065B061D0BEC1BDC0FF5
:1057200051A69337E6BB52333F9D113E8880D03A55
:105730008DD097243ACD5620E3EB152D54F6D4297D
:105740007926A9C5CE3B68C1171D2BCCA000EAC89D
:10575000A550ADD6124D6CD2CB6B2FDF7C76EEDB35
:10576000C1CBA1E376D660E7AFF023EA18EDE2EE15
:105770001DBDA5F0AAA064F4738627F9C49BE6FDBD
:1057800009FDB889BEE0798D67C63A80D0DBFB841D
:10579000D58BBC9A62967D9EBBB03E930CADFF97B5
:1057A000B110B0AF060D71ABDF2B32A66836F3A295
:1057B0006D66B4BCDA7B75B8035D36B5B440F7B13D
:1057C0004F636D640000000046626F617264000008
:1057D0004F77646174000000F85700080000002053
:1057E0006C0000000C110008645800086C000020D8
:1057F000441300002811000800127A000000000085
:105800000000000000000000000000000200000096
:105810000000000000000000000000000000000088
:105820000000000000000000000000000000000078
:105830000100000000000000000000000000000067
:10584000C05700080400000065220008D057000877
:105850000500000069230008C85700080600000082
:045860001123000808
:04000005080010D10E
:00000001FF
