:020000040800F2
:10000000780A00206D010008210300081903000888
:100010001D030008130300089503000800000000FA
:1000200000000000000000000000000025030008A0
:10003000170300080000000023030008270300083E
:100040008701000887010008870100088701000870
:100050008701000887010008870100088701000860
:100060008701000887010008870100088701000850
:100070008701000887010008870100088701000840
:100080008701000887010008870100088701000830
:100090008701000887010008870100088701000820
:1000A0008701000887010008870100088701000810
:1000B0008701000887010008870100088701000800
:1000C00087010008870100088701000887010008F0
:1000D00000F002F800F03AF80AA090E8000C824420
:1000E0008344AAF10107DA4501D100F02FF8AFF2FD
:1000F000090EBAE80F0013F0010F18BFFB1A43F006
:1001000001031847E405000004060000103A24BF6C
:1001100078C878C1FAD8520724BF30C830C144BF6C
:1001200004680C60704700000023002400250026AE
:10013000103A28BF78C1FBD8520728BF30C148BF4A
:100140000B6070471FB51FBD10B510BD00F0A8F8BB
:100150001146FFF7F7FF00F081FA00F0C6F803B48C
:10016000FFF7F2FF03BC00F0CDF80000094880471C
:1001700009480047FEE7FEE7FEE7FEE7FEE7FEE789
:10018000FEE7FEE7FEE7FEE704480549054A064BA1
:100190007047000029030008D100000878040020FF
:1001A000780A00207806002078060020032A40F212
:1001B000308010F0030C00F0158011F8013BBCF109
:1001C000020F624498BF11F801CB00F8013B38BF21
:1001D00011F8013BA2F1040298BF00F801CB38BF2F
:1001E00000F8013B11F0030300F02880083AC0F04A
:1001F000088051F8043B083A51F804CBA0E80810F5
:10020000F5E7121D5CBF51F8043B40F8043BAFF327
:100210000080D20724BF11F8013B11F801CB48BF81
:1002200011F8012B24BF00F8013B00F801CB48BFB7
:1002300000F8012B704770477047704710B5203A9F
:10024000C0F00B80B1E81850203AA0E81850B1E88F
:100250001850A0E81850BFF4F5AF5FEA027C24BF45
:10026000B1E81850A0E8185044BF18C918C0BDE83C
:1002700010405FEA827C24BF51F8043B40F8043B05
:1002800008BF7047D20728BF31F8023B48BF11F8BA
:10029000012B28BF20F8023B48BF00F8012B704714
:1002A000754600F02BF8AE4605006946534620F02F
:1002B0000700854618B020B5FFF766FFBDE820406F
:1002C0004FF000064FF000074FF000084FF0000B12
:1002D00021F00701AC46ACE8C009ACE8C009ACE8C5
:1002E000C009ACE8C0098D46704710B50446AFF3AD
:1002F00000802046BDE81040FFF731BF004870473E
:100300001404002001491820ABBEFEE726000200BD
:10031000704700BFFEE7704700BFFEE700BFFEE783
:1003200070477047704770471748006820F0010019
:10033000401C1549086000BF13480068C0F3400026
:100340000028F9D01048406820F003000E494860AA
:1003500000BF0D484068C0F381000028F9D10A4869
:1003600000680A490840084908600020486041F6D2
:100370001070C8624FF4801008634FF41F0088604B
:10038000C80303490860704700100240FFFFF2FEF7
:1003900008ED00E000BFFEE7002807DB00F01F02C9
:1003A00001219140024A430942F82310704700009E
:1003B00080E200E010B504462068A0F10050B0F5DE
:1003C000A04F44D80021224800F04AF800212048DC
:1003D000401C00F045F800211D48801C00F040F84A
:1003E00000214FF0141000F03BF800211848401D88
:1003F00000F036F800214FF4A01000F031F8002191
:10040000144800F02DF800211248801C00F028F854
:100410000021114800F024F800214FF4E01000F012
:100420001FF81D2000F04AF91D20FFF7B5FF0F202F
:1004300000F044F90F20FFF7AFFF0849606808603B
:10044000206880F3088800BF08460068804710BD18
:10045000110014000900180012001C000000002008
:1004600010B501290DD10E4B03EB1042126800F0BC
:100470001F040123A3401A43094C04EB10431A60E4
:100480000CE0074B03EB1042126800F01F0401233D
:10049000A3409A43024C04EB10431A6010BD0000C5
:1004A000001002401648006820F00100401C14496A
:1004B000086000BF12480068C0F340000028F9D06F
:1004C0000F48406820F003000D49486000BF0C4809
:1004D0004068C0F381000028F9D109480068094943
:1004E0000840074908600020486041F61070C86263
:1004F0004FF4801008634FF41F00886070470000BD
:1005000000100240FFFFF2FE2DE9F04107460D46C4
:1005100000F08CF8384600F069F800240CE0295D02
:10052000601C285C01EB002086B23146384600F0A2
:100530000BF8BF1CA01C84B2B4F5806FEFDB00F099
:100540001FF8BDE8F081000070B504460D46032693
:100550000A48006920F00100401C08490861258014
:100560004FF4801000F030F806460448006920F08F
:10057000010002490861304670BD000000200240C1
:100580000348006920F0800080300149086170470D
:100590000020024003200B49C96801F0010109B1A4
:1005A00000200EE00749C968C1F3800109B10120AC
:1005B00007E00449C968C1F3001109B1022000E055
:1005C000032070470020024000B502460323FFF7D6
:1005D000E1FF034603E0FFF7DDFF0346521E0BB9C0
:1005E000002AF8D102B90423184600BD30B50446EC
:1005F00003250D48006920F00200801C0A490861AB
:1006000008464461006920F0400040300861480419
:10061000FFF7DAFF05460448006920F002000249AE
:100620000861284630BD000000200240024803490E
:100630004860034848607047230167450020024036
:10064000AB89EFCD70B504460D46034901EB84201C
:100650002946FFF759FF70BD001000080D2212490E
:100660001248FFF7A3FD11480078C0B900240BE041
:100670000F4800EB842142140E48FFF797FDA0B20B
:100680000C49FFF7DFFF641C0848D0F80100A042C6
:10069000EED8FFF707FF0848FFF78CFE02E0064898
:1006A000FFF788FE00BFFEE700F800080400002006
:1006B00000840008110000200010000810B5014659
:1006C000084600280BDB00F01F0301229A40054B6F
:1006D000440943F82420BFF34F8FBFF36F8F00BF4F
:1006E00010BD000080E100E00807000800000020C5
:1006F000040000000C0100080C07000804000020A2
:0C070000740A000028010008000000003E
:04000005080000D11E
:00000001FF
