:020000040800F2
:100000009806002075010008270500081F05000854
:1000100023050008190500089D05000800000000E0
:100020000000000000000000000000002B05000898
:100030001D05000800000000290500082D05000826
:100040008F0100088F0100088F0100088F01000850
:100050008F0100088F0100088F0100088F01000840
:100060008F0100088F0100088F0100088F01000830
:100070008F0100088F0100088F0100088F01000820
:100080008F0100088F0100088F0100088F01000810
:100090008F0100088F0100088F0100088F01000800
:1000A0008F0100088F0100088F0100088F010008F0
:1000B0008F0100088F0100088F0100088F010008E0
:1000C0008F0100088F0100088F0100088F010008D0
:1000D00000F002F800F03FF80AA090E8000C82441B
:1000E0008344AAF10107DA4501D100F034F8AFF2F8
:1000F000090EBAE80F0013F0010F18BFFB1A43F006
:1001000001031847E80F000008100000103A24BF50
:1001100078C878C1FAD8520724BF30C830C144BF6C
:1001200004680C60704700000023002400250026AE
:10013000103A28BF78C1FBD8520728BF30C148BF4A
:100140000B607047752900F0ED80002070471FB5E7
:100150001FBD10B510BD00F0ADF91146FFF7F7FF58
:1001600000F0C0FD00F0CBF903B4FFF7F2FF03BCD1
:1001700000F016FA0948804709480047FEE7FEE705
:10018000FEE7FEE7FEE7FEE7FEE7FEE7FEE7FEE747
:1001900004480549054A064B704700003105000830
:1001A000D100000898000020980600209802002046
:1001B00098020020704753EA020C00F069802DE994
:1001C000F04B4FF00006002B1FBFB3FA83F503FA84
:1001D00005F424FA05F65E4012BF1643B2FA82F522
:1001E00002FA05F4C5F120051EBF22FA05FC44EA17
:1001F0000C04203556EA044C4FEA144418BF641C22
:100200004FF000084FF00009904271EB030C39D316
:10021000002919BFB1FA81F701FA07F6B0FA80F7A1
:1002200000FA07F6C7F120071EBF20FA07FC46EACE
:100230000C062037B6FBF4FCA7EB0507103F07F0D0
:100240001F0BCBF120060CFA0BFB2CFA06F644BF71
:10025000B3460026202FA4BF5E464FF0000B5BEA9A
:10026000060C08BF4FF0010B19EB0B09ABFB027C2E
:1002700048EB0608C01B06FB02CC0BFB03CC71EB62
:100280000C01C1E70B46024641464846BDE8F08BEB
:1002900013B54FF000004FF00001AFF30080BDE850
:1002A0001C4070470FB4044910B503AA029800F02F
:1002B000D3F810BC5DF814FB2C0000202DE9F041B0
:1002C0000E460446002020622046E168884730B38D
:1002D000252805D0D4E901219047206A401CF2E787
:1002E000E168204600278847050018D0A5F14100A5
:1002F000192802D820354FF4006732462946204697
:100300002760FFF71FFF40B1012804D0F61D26F03B
:1003100007060836D8E7361DD6E72846DAE7206A0A
:10032000BDE8F0812DE9F0410646002410687529EA
:10033000314616A510D0AFF30080002802DA404203
:1003400013A507E031688A0701D512A502E0490725
:1003500004D511A5012401E0AFF3008000210A2299
:1003600006F1240709E0B0FBF2FCB0FBF2F302FB5C
:100370001C00303078541846491C0028F3D123461D
:100380002A463046BDE8F04100F00CB800000000FD
:100390002D0000002B000000200000007047704777
:1003A000704770472DE9F0470D469946924604463E
:1003B00000F124080168880604D5E06921F01001E5
:1003C000216000E00120A84201DD471B00E000277A
:1003D000A1697A1902EB0900081AA0612078C00609
:1003E00002D42046AFF30080002608E0D4E90121C2
:1003F0001AF806009047206A401C761C20624E4581
:10040000F4DB2078C0060AD52046AFF3008006E072
:10041000D4E9012130209047206A401C2062381E18
:10042000A7F10107F4DC07E0D4E9012118F8050081
:100430009047206A401C2062281EA5F10105F3DCCC
:100440002046AFF300802078000602D50220BDE8E8
:10045000F0870120FBE70000074B70B50D467B4499
:1004600000F011F80446284600F020F810B14FF0D3
:10047000FF3070BD204670BD7F07000001694A1C37
:1004800002610878704700B58FB0CDE901310021D5
:10049000059105497944CDE9031011466846FFF7F7
:1004A0000DFF0FB000BD0000E5FFFFFF007B00F077
:1004B00080007047754600F02BF8AE46050069468F
:1004C000534620F00700854618B020B5FFF760FEC0
:1004D000BDE820404FF000064FF000074FF0000845
:1004E0004FF0000B21F00701AC46ACE8C009ACE8C6
:1004F000C009ACE8C009ACE8C0098D46704710B52A
:100500000446AFF300802046BDE81040FFF72CBE44
:10051000004870473800002000BFFEE7704700BF6A
:10052000FEE700BFFEE77047704770477047000066
:100530001748006820F00100401C1549086000BF02
:1005400013480068C0F340000028F9D01048406804
:1005500020F003000E49486000BF0D484068C0F31A
:1005600081000028F9D10A4800680A490840084972
:1005700008600020486041F61070C8624FF4801097
:1005800008634FF41F008860C80303490860704780
:1005900000100240FFFFF2FE08ED00E000BFFEE7A2
:1005A00000BF704710B500F0B3FA002000F030F83B
:1005B000012000F02DF8022000F02AF8002000F0C1
:1005C0004FF8012000F04CF8022000F049F800F04C
:1005D00001F810BD1CB501210C4800F0A9F96846CE
:1005E00000F018FB01208DF8070000208DF80400B2
:1005F0008DF806000120009002208DF80500694664
:100600004FF0904000F010FB1CBD000011001400E2
:100610001CB504460F4951F82400012100F088F967
:10062000684600F0F7FA01208DF8070000208DF8E9
:10063000040001208DF80600074830F814000090EF
:1006400000208DF80500054951F82400694600F0A6
:10065000EBFA1CBD18000020100000200400002050
:10066000022800DD7047064931F8101031B1044905
:1006700031F81010034A52F82020916100BFF1E7D1
:1006800010000020040000200349496860F30711AE
:10069000014A516070470000001002400349496858
:1006A00060F30A21014A51607047000000100240C7
:1006B0000349496860F3CD21014A51607047000049
:1006C00000100240052827D2DFE800F0030A1118C5
:1006D0001F00134A126861F30002114B1A601CE0FC
:1006E0000F4A126861F310420D4B1A6015E00C4A74
:1006F000126861F318620A4B1A600EE0084A126A27
:1007000061F30002064B1A6207E0054A526A61F380
:100710000002034B5A6200E000BF00BF70470000B8
:10072000001002402DE9F04F85B004460025AA468E
:10073000AB460026A9460020049003900290019049
:1007400000F0DEF90090009820B1012812D00228B4
:1007500075D112E05648406DC0F3402038B154487E
:10076000006BC0F3406010B15248206001E0524875
:10077000206067E05048206064E04D484068C0F366
:10078000004B4B48C06AC00F30BB49484068C0F3BB
:10079000834547484068C0F3417ABAF1000F01D160
:1007A0000F2D04D14FEA0A10401C054400E0AD1C97
:1007B000BBF1000F03D14148684320603DE03C4855
:1007C0004068C0F3404018B13C486843206034E0C2
:1007D00039486843206030E03548C06AC0F30310F0
:1007E00003903348C06AC0F3082002903048C06AC2
:1007F00000F007000190BBF1000F02D12F480490D8
:1008000009E02B484068C0F3404010B12B480490E9
:1008100001E0294804900121019801FA00F00399B0
:1008200000FB01FC02990498A0FB0170014662469E
:1008300000233846FFF7BFFC206003E0FFE71E48B7
:10084000206000BF00BF1A484068C0F303161C4870
:1008500010F80690206820FA09F06060144840689B
:10086000C0F30226174810F80690606820FA09F0D5
:10087000E0600F484068C0F3C226134810F80690A5
:10088000606820FA09F0A06009484068C0F300766B
:1008900007484068C0F3813040EA86060B4810F8EC
:1008A0000690A068B0FBF9F0206105B0BDE8F08FBC
:1008B00000100240006CDC0200127A0000093D00CA
:1008C00066100008761000087E10000886100008E8
:1008D00010B501460020094B03EB1142126801F0EC
:1008E0001F040123A3401A4001F01F040123A34069
:1008F0009A4200D000E0012010BD0000001002402C
:1009000030B50024002500E0641C1120FFF7E0FF53
:10091000012802D0B4F5405FF6D31120FFF7D8FFCD
:10092000012801D0002500E00125284630BD000047
:1009300010B501290DD10E4B03EB1042126800F0E7
:100940001F040123A3401A43094C04EB10431A600F
:100950000CE0074B03EB1042126800F01F04012368
:10096000A3409A43024C04EB10431A6010BD0000F0
:100970000010024030B502460020002372B9354C09
:10098000646824F48034334D6C6033482C46246B07
:1009900024F0007404F100742C6319E02D4C646899
:1009A00024F4803404F580342A4D6C60012A06D189
:1009B0002A482C46646824F400346C6008E0264819
:1009C000244C646824F4003404F50034214D6C6038
:1009D000234CA04204D9234CA04201D2002326E09C
:1009E000214CA04204D9214CA04201D201231EE097
:1009F0001F4CA04204D91F4CA04201D2022316E092
:100A00001C4CA04204D91C4CA04201D203230EE08E
:100A10001A4CA04204D91A4CA04201D2042306E089
:100A2000174CA04203D9174CA04200D20523094C11
:100A3000646861F39544074D6C600D09054C64686A
:100A400065F35E74034D6C602C46E46A63F31A64CC
:100A5000EC6230BD0010024000093D0000127A0037
:100A600060823B00404B4C0080584F00105E5F009E
:100A700094357700101B7F0020BCBE00286BEE0071
:100A800030D73D01D8E9DC011648006820F00100AC
:100A9000401C1449086000BF12480068C0F34000C1
:100AA0000028F9D00F48406820F003000D49486045
:100AB00000BF0C484068C0F381000028F9D1094804
:100AC000006809490840074908600020486041F66D
:100AD0001070C8624FF4801008634FF41F008860E4
:100AE0007047000000100240FFFFF2FE0349496812
:100AF00060F30101014A516070470000001002409C
:100B000002484068C0F381007047000000100240B6
:100B100010B5042000F0F0F9074800680749B0FB61
:100B2000F1F007490860084600684FF47A714843BD
:100B30000449086010BD00003400002040420F004E
:100B40002400002028000020002131E032280ADDA6
:100B5000194A126832235A434FF0E0235A61A0F138
:100B6000320290B206E0144A126842434FF0E0238A
:100B70005A61002000224FF0E0239A611A46126960
:100B800042F001021A6100BF4FF0E022116901F04A
:100B900001021AB101F48032002AF5D04FF0E022B0
:100BA000126922F001024FF0E0231A6100229A61DB
:100BB0000028CBD1704700002800002030B5044643
:100BC000002509E04FF4FA70FFF7BEFF4FF4FA700A
:100BD000FFF7BAFF681C85B2A542F3DB30BD000009
:100BE00070B504460D4600BF8021094800F0DBF9CE
:100BF0000028F9D0A1B2064800F0CCF900BF40218E
:100C0000034800F0D0F90028F9D0204670BD00005C
:100C1000003801404FF6FF710160002181710171C0
:100C200041710121C171704770B50A4600211488D5
:100C3000A3B233E003F001046CB304684E00032553
:100C4000B540AC43046094794D00AC4005682C433A
:100C50000460446801258D40AC43446044681579C4
:100C60008D402C43446084684E000325B540AC435E
:100C70008460D4794D00AC4085682C438460C4689E
:100C80004E000325B540AC43C46054794D00AC40E0
:100C9000C5682C43C4605B104C1CA1B2002BC9DC9E
:100CA00070BDF0B5002300244D07ED0E02FA05F3E8
:100CB000CD105DB1456A4E07F70E0F26BE40B54315
:100CC0004562456A45EA030444620AE0056A4E0744
:100CD000F70E0F26BE40B5430562056A45EA0304D8
:100CE0000462F0BD00F02AF8FFF75CFC4FF4E1303D
:100CF00000F016F90848FFF7D5FA0BE0074804683A
:100D0000601C064A1060214605A0FFF7CBFA0120BF
:100D1000FFF754FFF2E70000A010000800000020D9
:100D20007573617274207072696E746620636F757A
:100D30006E7465723A2025750D0A000010B5FFF734
:100D4000A3FE4FF4A9701649086001210846FFF779
:100D5000B9FC00BFFFF7D4FD0028FBD00A21012019
:100D6000FFF708FE01210220FFF7ACFC00BF1920AD
:100D7000FFF7AEFD0128FAD10020FFF785FC002027
:100D8000FFF796FC0020FFF789FC0220FFF7AEFE7C
:100D900000BFFFF7B5FE0228FBD100F003F810BD3D
:100DA000002002402DE9FF5F002400250026A14617
:100DB000A246A3460020039002900190FFF7A0FEF8
:100DC0000090009820B1012814D0022874D115E0B9
:100DD0004348406DC0F3402040B14148006BC0F330
:100DE000406018B13F484049086002E03F483E4932
:100DF000086065E03D483C49086061E0384840686B
:100E0000C0F300463648C06AC00F20BB3448406873
:100E1000C0F3834432484068C0F341750DB90F2CCC
:100E200003D12801401C044400E0A41C26B930482A
:100E300060432D4908603DE029484068C0F34040C8
:100E400020B12B4860432849086033E027486043BD
:100E5000254908602EE02248C06AC0F303100390C1
:100E60001F48C06AC0F3082002901D48C06A00F005
:100E70000700019016B9DFF878B009E0184840681B
:100E8000C0F3404010B1DFF868B001E0DFF85CB0BB
:100E90000121019801FA00F0039900FB01FC02987E
:100EA000ABFB00700146624600233846FFF783F92A
:100EB0000D49086004E0FFE70C480B49086000BFDB
:100EC00000BF07484068C0F303190A4810F809A09A
:100ED0000548006820FA0AF003490860BDE8FF9F52
:100EE00000100240006CDC023400002000127A0086
:100EF00000093D008E100008042808D14FF0E021C1
:100F0000096941F004014FF0E022116107E04FF060
:100F1000E021096921F004014FF0E02211617047DE
:100F20001CB5044601211848FFF702FD01211748AE
:100F3000FFF7FEFC6846FFF76DFE01208DF8070005
:100F400000208DF8040002208DF8060000020090B9
:100F500000208DF8050069464FF09040FFF764FED1
:100F600001220921C806FFF79CFE00230122214629
:100F7000074800F021F80121054800F06FF8012131
:100F8000034800F00BF81CBD0E00180011001400FF
:100F900000380140C1F3080242607047C26861F343
:100FA0004D32C260704702461068084008B1012007
:100FB00070470020FCE700002DE9F04385B00446AF
:100FC0008846164699466846FFF7ACFB224884429D
:100FD00001D1029F00E0039F07EB87004000B0FBB8
:100FE000F8F50A20B5FBF0F100FB1150052803D2FB
:100FF0000A20B5FBF0F503E00A20B5FBF0F0451C34
:10100000A06865F30F00A06056B9E06820F080503A
:1010100000F18050E060E06820F48050E06014E06F
:10102000012E08D1E06820F08050E060E06820F4F4
:101030008050E06009E0E06820F08050E060E06807
:1010400020F4805000F58050E060206969F30D3095
:10105000206105B0BDE8F08300380140C26861F34B
:10106000C302C260704700000000000000000102DF
:101070000304060708090000000001020304000041
:1010800000000102030402040608020C081000001C
:101090000000000000000102030406070809000028
:1010A0007573617274207072696E74662065786100
:1010B0006D706C653A207265746172676574207436
:1010C00068652063206C6962726172792070726950
:1010D0006E74662066756E6374696F6E20746F201F
:1010E0007468652075736172740D0A000C11000834
:1010F00000000020380000000C0100084411000826
:1011000038000020600600002801000800000000F0
:1011100000080048000800480008004804000800D3
:10112000200000001300140013001400130014002A
:1011300000000000000000000000000001000000AE
:0411400000127A001F
:04000005080000D11E
:00000001FF
